{
  "abi": [
    {
      "inputs": [
        {
          "internalType": "address",
          "name": "initialOwner",
          "type": "address"
        }
      ],
      "stateMutability": "nonpayable",
      "type": "constructor"
    },
    {
      "inputs": [
        {
          "internalType": "address",
          "name": "owner",
          "type": "address"
        }
      ],
      "name": "OwnableInvalidOwner",
      "type": "error"
    },
    {
      "inputs": [
        {
          "internalType": "address",
          "name": "account",
          "type": "address"
        }
      ],
      "name": "OwnableUnauthorizedAccount",
      "type": "error"
    },
    {
      "anonymous": false,
      "inputs": [
        {
          "indexed": true,
          "internalType": "address",
          "name": "previousOwner",
          "type": "address"
        },
        {
          "indexed": true,
          "internalType": "address",
          "name": "newOwner",
          "type": "address"
        }
      ],
      "name": "OwnershipTransferred",
      "type": "event"
    },
    {
      "anonymous": false,
      "inputs": [
        {
          "indexed": false,
          "internalType": "uint256",
          "name": "id",
          "type": "uint256"
        },
        {
          "indexed": false,
          "internalType": "address",
          "name": "surveyprod_address",
          "type": "address"
        },
        {
          "indexed": false,
          "internalType": "uint256",
          "name": "capacity",
          "type": "uint256"
        },
        {
          "indexed": false,
          "internalType": "uint256",
          "name": "start_date",
          "type": "uint256"
        },
        {
          "indexed": false,
          "internalType": "uint256",
          "name": "balance",
          "type": "uint256"
        }
      ],
      "name": "SurveyCreated",
      "type": "event"
    },
    {
      "anonymous": false,
      "inputs": [
        {
          "indexed": false,
          "internalType": "uint256",
          "name": "id",
          "type": "uint256"
        },
        {
          "indexed": false,
          "internalType": "address",
          "name": "surveyprod_address",
          "type": "address"
        },
        {
          "indexed": false,
          "internalType": "address",
          "name": "respondent",
          "type": "address"
        }
      ],
      "name": "SurveyResponded",
      "type": "event"
    },
    {
      "inputs": [
        {
          "internalType": "uint256",
          "name": "_id",
          "type": "uint256"
        },
        {
          "internalType": "address",
          "name": "_respondent",
          "type": "address"
        },
        {
          "internalType": "address",
          "name": "_iexec_dataset_address",
          "type": "address"
        },
        {
          "internalType": "uint256",
          "name": "reputation_reward",
          "type": "uint256"
        }
      ],
      "name": "add_respondent",
      "outputs": [],
      "stateMutability": "nonpayable",
      "type": "function"
    },
    {
      "inputs": [
        {
          "internalType": "uint256",
          "name": "_id",
          "type": "uint256"
        }
      ],
      "name": "close_survey",
      "outputs": [
        {
          "internalType": "address[]",
          "name": "",
          "type": "address[]"
        }
      ],
      "stateMutability": "nonpayable",
      "type": "function"
    },
    {
      "inputs": [
        {
          "internalType": "uint256",
          "name": "_respondent_reward",
          "type": "uint256"
        },
        {
          "internalType": "address",
          "name": "_currency_reward",
          "type": "address"
        },
        {
          "internalType": "uint256",
          "name": "_campaign_budget",
          "type": "uint256"
        },
        {
          "internalType": "string",
          "name": "_survey_link",
          "type": "string"
        }
      ],
      "name": "create_survey",
      "outputs": [],
      "stateMutability": "nonpayable",
      "type": "function"
    },
    {
      "inputs": [
        {
          "internalType": "uint256",
          "name": "_id",
          "type": "uint256"
        },
        {
          "internalType": "uint256",
          "name": "_new_reward",
          "type": "uint256"
        }
      ],
      "name": "edit_survey_reward",
      "outputs": [],
      "stateMutability": "nonpayable",
      "type": "function"
    },
    {
      "inputs": [
        {
          "internalType": "uint256",
          "name": "_id",
          "type": "uint256"
        }
      ],
      "name": "get_survey",
      "outputs": [
        {
          "components": [
            {
              "internalType": "uint256",
              "name": "respondent_reward",
              "type": "uint256"
            },
            {
              "internalType": "address",
              "name": "currency_reward",
              "type": "address"
            },
            {
              "internalType": "uint256",
              "name": "campaign_budget",
              "type": "uint256"
            },
            {
              "internalType": "string",
              "name": "survey_link",
              "type": "string"
            },
            {
              "internalType": "uint256",
              "name": "id",
              "type": "uint256"
            },
            {
              "internalType": "uint256",
              "name": "start_date",
              "type": "uint256"
            },
            {
              "internalType": "uint256",
              "name": "respondent_count",
              "type": "uint256"
            },
            {
              "internalType": "address",
              "name": "surveyprod_address",
              "type": "address"
            }
          ],
          "internalType": "struct Survey",
          "name": "",
          "type": "tuple"
        }
      ],
      "stateMutability": "view",
      "type": "function"
    },
    {
      "inputs": [
        {
          "internalType": "uint256",
          "name": "_id",
          "type": "uint256"
        },
        {
          "internalType": "uint256",
          "name": "_budget",
          "type": "uint256"
        }
      ],
      "name": "increase_survey_budget",
      "outputs": [],
      "stateMutability": "nonpayable",
      "type": "function"
    },
    {
      "inputs": [],
      "name": "owner",
      "outputs": [
        {
          "internalType": "address",
          "name": "",
          "type": "address"
        }
      ],
      "stateMutability": "view",
      "type": "function"
    },
    {
      "inputs": [],
      "name": "renounceOwnership",
      "outputs": [],
      "stateMutability": "nonpayable",
      "type": "function"
    },
    {
      "inputs": [
        {
          "internalType": "address",
          "name": "",
          "type": "address"
        },
        {
          "internalType": "uint256",
          "name": "",
          "type": "uint256"
        }
      ],
      "name": "respondent_surveys",
      "outputs": [
        {
          "internalType": "uint256",
          "name": "",
          "type": "uint256"
        }
      ],
      "stateMutability": "view",
      "type": "function"
    },
    {
      "inputs": [
        {
          "internalType": "address",
          "name": "",
          "type": "address"
        }
      ],
      "name": "respondents_iexec_dataset_address",
      "outputs": [
        {
          "internalType": "address",
          "name": "",
          "type": "address"
        }
      ],
      "stateMutability": "view",
      "type": "function"
    },
    {
      "inputs": [
        {
          "internalType": "address",
          "name": "",
          "type": "address"
        }
      ],
      "name": "respondents_reputation",
      "outputs": [
        {
          "internalType": "uint256",
          "name": "",
          "type": "uint256"
        }
      ],
      "stateMutability": "view",
      "type": "function"
    },
    {
      "inputs": [],
      "name": "survey_count",
      "outputs": [
        {
          "internalType": "uint256",
          "name": "",
          "type": "uint256"
        }
      ],
      "stateMutability": "view",
      "type": "function"
    },
    {
      "inputs": [
        {
          "internalType": "uint256",
          "name": "",
          "type": "uint256"
        },
        {
          "internalType": "uint256",
          "name": "",
          "type": "uint256"
        }
      ],
      "name": "survey_respondents",
      "outputs": [
        {
          "internalType": "address",
          "name": "",
          "type": "address"
        }
      ],
      "stateMutability": "view",
      "type": "function"
    },
    {
      "inputs": [
        {
          "internalType": "uint256",
          "name": "",
          "type": "uint256"
        }
      ],
      "name": "surveys",
      "outputs": [
        {
          "internalType": "uint256",
          "name": "respondent_reward",
          "type": "uint256"
        },
        {
          "internalType": "address",
          "name": "currency_reward",
          "type": "address"
        },
        {
          "internalType": "uint256",
          "name": "campaign_budget",
          "type": "uint256"
        },
        {
          "internalType": "string",
          "name": "survey_link",
          "type": "string"
        },
        {
          "internalType": "uint256",
          "name": "id",
          "type": "uint256"
        },
        {
          "internalType": "uint256",
          "name": "start_date",
          "type": "uint256"
        },
        {
          "internalType": "uint256",
          "name": "respondent_count",
          "type": "uint256"
        },
        {
          "internalType": "address",
          "name": "surveyprod_address",
          "type": "address"
        }
      ],
      "stateMutability": "view",
      "type": "function"
    },
    {
      "inputs": [
        {
          "internalType": "address",
          "name": "newOwner",
          "type": "address"
        }
      ],
      "name": "transferOwnership",
      "outputs": [],
      "stateMutability": "nonpayable",
      "type": "function"
    }
  ],
  "bytecode": {
    "object": "0x6080604052600060015534801561001557600080fd5b506040516116e93803806116e9833981016040819052610034916100c3565b806001600160a01b03811661006357604051631e4fbdf760e01b81526000600482015260240160405180910390fd5b61006c81610073565b50506100f3565b600080546001600160a01b038381166001600160a01b0319831681178455604051919092169283917f8be0079c531659141344cd1fd0a4f28419497f9722a3daafe3b4186f6b6457e09190a35050565b6000602082840312156100d557600080fd5b81516001600160a01b03811681146100ec57600080fd5b9392505050565b6115e7806101026000396000f3fe608060405234801561001057600080fd5b50600436106100f55760003560e01c806386e68b9011610097578063dff9af8e11610066578063dff9af8e14610229578063f2fde38b14610249578063f420a6771461025c578063fae055561461026f57600080fd5b806386e68b90146101c75780638da5cb5b146101ee5780639aec8f89146101ff5780639b35d7051461022057600080fd5b806347cd3a9a116100d357806347cd3a9a1461017957806366e54a741461018c578063715018a61461019f57806384bb2bce146101a757600080fd5b806310155e86146100fa5780631de4de271461012357806332968c0614610164575b600080fd5b61010d610108366004611033565b610282565b60405161011a919061104c565b60405180910390f35b61014c6101313660046110b5565b6005602052600090815260409020546001600160a01b031681565b6040516001600160a01b03909116815260200161011a565b6101776101723660046110d7565b6105c6565b005b6101776101873660046110f9565b610614565b61017761019a3660046110d7565b61099e565b610177610aa2565b6101ba6101b5366004611033565b610ab6565b60405161011a9190611183565b6101da6101d5366004611033565b610c1e565b60405161011a989796959493929190611203565b6000546001600160a01b031661014c565b61021261020d366004611261565b610cfc565b60405190815260200161011a565b61021260015481565b6102126102373660046110b5565b60066020526000908152604090205481565b6101776102573660046110b5565b610d2d565b61014c61026a3660046110d7565b610d6b565b61017761027d3660046112a1565b610da3565b60008181526002602052604090206007015460609082906001600160a01b031633146102c95760405162461bcd60e51b81526004016102c090611376565b60405180910390fd5b6000838152600260208190526040918290209081015460019091015491516370a0823160e01b815230600482015290916001600160a01b0316906370a0823190602401602060405180830381865afa158015610329573d6000803e3d6000fd5b505050506040513d601f19601f8201168201806040525081019061034d91906113c0565b6000858152600260208190526040909120015411156103e557600084815260026020526040908190206001015490516370a0823160e01b81523060048201526001600160a01b03909116906370a0823190602401602060405180830381865afa1580156103be573d6000803e3d6000fd5b505050506040513d601f19601f820116820180604052508101906103e291906113c0565b90505b6000848152600260205260409081902060010154905163a9059cbb60e01b8152336004820152602481018390526001600160a01b039091169063a9059cbb906044016020604051808303816000875af1158015610446573d6000803e3d6000fd5b505050506040513d601f19601f8201168201806040525081019061046a91906113d9565b50600084815260026020818152604080842090920183905560038152818320805483518184028101840190945280845290918301828280156104d557602002820191906000526020600020905b81546001600160a01b031681526001909101906020018083116104b7575b505050505090506000815167ffffffffffffffff8111156104f8576104f861128b565b604051908082528060200260200182016040528015610521578160200160208202803683370190505b50905060005b82518110156105ba57600060056000858481518110610548576105486113fb565b60200260200101516001600160a01b03166001600160a01b0316815260200190815260200160002060009054906101000a90046001600160a01b0316905080838381518110610599576105996113fb565b6001600160a01b039092166020928302919091019091015250600101610527565b50935050505b50919050565b60008281526002602052604090206007015482906001600160a01b031633146106015760405162461bcd60e51b81526004016102c090611376565b5060009182526002602052604090912055565b6000848152600260208190526040909120015484906106755760405162461bcd60e51b815260206004820152601c60248201527f537572766579206973206e6f742061637469766520616e796d6f72650000000060448201526064016102c0565b61067d610fb6565b60008581526003602090815260408083208054600180820183559185528385200180546001600160a01b03199081166001600160a01b038b8116918217909355808752600486528487208054948501815587528587209093018b9055918552600584528285208054909216908816179055600690915281208054849290610705908490611427565b909155505060008581526002602052604090819020805460019091015491516370a0823160e01b815230600482015290916001600160a01b0316906370a0823190602401602060405180830381865afa158015610766573d6000803e3d6000fd5b505050506040513d601f19601f8201168201806040525081019061078a91906113c0565b600087815260026020526040902054111561081e57600086815260026020526040908190206001015490516370a0823160e01b81523060048201526001600160a01b03909116906370a0823190602401602060405180830381865afa1580156107f7573d6000803e3d6000fd5b505050506040513d601f19601f8201168201806040525081019061081b91906113c0565b90505b6000868152600260205260409081902060010154905163a9059cbb60e01b81526001600160a01b038781166004830152602482018490529091169063a9059cbb906044016020604051808303816000875af1158015610881573d6000803e3d6000fd5b505050506040513d601f19601f820116820180604052508101906108a591906113d9565b506000868152600260208190526040909120015481116108eb57600086815260026020819052604082200180548392906108e0908490611440565b909155506108fe9050565b6000868152600260208190526040822001555b6000868152600260205260408120600601805460019290610920908490611427565b9091555050600086815260026020526040908190206007015490517f7e51951d5bfd8bc477eb6b9af8fd5e6c0e4e04e7a8ad74ba8b9587e106c401849161098e9189916001600160a01b03169089909283526001600160a01b03918216602084015216604082015260600190565b60405180910390a1505050505050565b6000828152600260205260408082206001015490516323b872dd60e01b8152336004820152306024820152604481018490526001600160a01b03909116906323b872dd906064016020604051808303816000875af1158015610a04573d6000803e3d6000fd5b505050506040513d601f19601f82011682018060405250810190610a2891906113d9565b905080610a775760405162461bcd60e51b815260206004820152601c60248201527f4e6f7420656e6f7567682062756467657420666f72207375727665790000000060448201526064016102c0565b60008381526002602081905260408220018054849290610a98908490611427565b9091555050505050565b610aaa610fb6565b610ab46000610fe3565b565b610b106040518061010001604052806000815260200160006001600160a01b03168152602001600081526020016060815260200160008152602001600081526020016000815260200160006001600160a01b031681525090565b6000828152600260208181526040928390208351610100810185528154815260018201546001600160a01b0316928101929092529182015492810192909252600381018054606084019190610b6490611453565b80601f0160208091040260200160405190810160405280929190818152602001828054610b9090611453565b8015610bdd5780601f10610bb257610100808354040283529160200191610bdd565b820191906000526020600020905b815481529060010190602001808311610bc057829003601f168201915b50505091835250506004820154602082015260058201546040820152600682015460608201526007909101546001600160a01b031660809091015292915050565b6002602081905260009182526040909120805460018201549282015460038301805492946001600160a01b0316939192610c5790611453565b80601f0160208091040260200160405190810160405280929190818152602001828054610c8390611453565b8015610cd05780601f10610ca557610100808354040283529160200191610cd0565b820191906000526020600020905b815481529060010190602001808311610cb357829003601f168201915b50505050600483015460058401546006850154600790950154939491939092506001600160a01b031688565b60046020528160005260406000208181548110610d1857600080fd5b90600052602060002001600091509150505481565b610d35610fb6565b6001600160a01b038116610d5f57604051631e4fbdf760e01b8152600060048201526024016102c0565b610d6881610fe3565b50565b60036020528160005260406000208181548110610d8757600080fd5b6000918252602090912001546001600160a01b03169150829050565b6040516323b872dd60e01b8152336004820152306024820152604481018390526000906001600160a01b038516906323b872dd906064016020604051808303816000875af1158015610df9573d6000803e3d6000fd5b505050506040513d601f19601f82011682018060405250810190610e1d91906113d9565b905080610e6c5760405162461bcd60e51b815260206004820152601c60248201527f4e6f7420656e6f7567682062756467657420666f72207375727665790000000060448201526064016102c0565b60408051610100810182528681526001600160a01b0386811660208084019182528385018881526060850188815260018054608088018190524260a0890152600060c089018190523360e08a01529081526002948590529790972086518155935196840180546001600160a01b031916979095169690961790935591519181019190915591519091906003820190610f0490826114d8565b50608082810151600483015560a080840151600584015560c0840151600684015560e090930151600790920180546001600160a01b0319166001600160a01b03909316929092179091556001546040805191825233602083015281018890524260608201529081018590527fb2564c02299463c051737e3b5e1112fd7e038932447506012f7b22eec11983fa910160405180910390a160018054906000610faa83611598565b91905055505050505050565b6000546001600160a01b03163314610ab45760405163118cdaa760e01b81523360048201526024016102c0565b600080546001600160a01b038381166001600160a01b0319831681178455604051919092169283917f8be0079c531659141344cd1fd0a4f28419497f9722a3daafe3b4186f6b6457e09190a35050565b60006020828403121561104557600080fd5b5035919050565b6020808252825182820181905260009190848201906040850190845b8181101561108d5783516001600160a01b031683529284019291840191600101611068565b50909695505050505050565b80356001600160a01b03811681146110b057600080fd5b919050565b6000602082840312156110c757600080fd5b6110d082611099565b9392505050565b600080604083850312156110ea57600080fd5b50508035926020909101359150565b6000806000806080858703121561110f57600080fd5b8435935061111f60208601611099565b925061112d60408601611099565b9396929550929360600135925050565b6000815180845260005b8181101561116357602081850181015186830182015201611147565b506000602082860101526020601f19601f83011685010191505092915050565b60208152815160208201526000602083015160018060a01b03808216604085015260408501516060850152606085015191506101008060808601526111cc61012086018461113d565b9250608086015160a086015260a086015160c086015260c086015160e08601528160e0870151168186015250508091505092915050565b8881526001600160a01b03888116602083015260408201889052610100606083018190526000916112368483018a61113d565b92508760808501528660a08501528560c085015280851660e085015250509998505050505050505050565b6000806040838503121561127457600080fd5b61127d83611099565b946020939093013593505050565b634e487b7160e01b600052604160045260246000fd5b600080600080608085870312156112b757600080fd5b843593506112c760208601611099565b925060408501359150606085013567ffffffffffffffff808211156112eb57600080fd5b818701915087601f8301126112ff57600080fd5b8135818111156113115761131161128b565b604051601f8201601f19908116603f011681019083821181831017156113395761133961128b565b816040528281528a602084870101111561135257600080fd5b82602086016020830137600060208483010152809550505050505092959194509250565b6020808252602a908201527f4f6e6c79207468652073757276657970726f642063616e2063616c6c207468696040820152693990333ab731ba34b7b760b11b606082015260800190565b6000602082840312156113d257600080fd5b5051919050565b6000602082840312156113eb57600080fd5b815180151581146110d057600080fd5b634e487b7160e01b600052603260045260246000fd5b634e487b7160e01b600052601160045260246000fd5b8082018082111561143a5761143a611411565b92915050565b8181038181111561143a5761143a611411565b600181811c9082168061146757607f821691505b6020821081036105c057634e487b7160e01b600052602260045260246000fd5b601f8211156114d3576000816000526020600020601f850160051c810160208610156114b05750805b601f850160051c820191505b818110156114cf578281556001016114bc565b5050505b505050565b815167ffffffffffffffff8111156114f2576114f261128b565b611506816115008454611453565b84611487565b602080601f83116001811461153b57600084156115235750858301515b600019600386901b1c1916600185901b1785556114cf565b600085815260208120601f198616915b8281101561156a5788860151825594840194600190910190840161154b565b50858210156115885787850151600019600388901b60f8161c191681555b5050505050600190811b01905550565b6000600182016115aa576115aa611411565b506001019056fea2646970667358221220f5ccfabed3dbcfa2c76673c422859e21f473c5ab64551be74c917f0df800d6cc64736f6c63430008160033",
    "linkReferences": {}
  },
  "methodIdentifiers": {
    "add_respondent(uint256,address,address,uint256)": "47cd3a9a",
    "close_survey(uint256)": "10155e86",
    "create_survey(uint256,address,uint256,string)": "fae05556",
    "edit_survey_reward(uint256,uint256)": "32968c06",
    "get_survey(uint256)": "84bb2bce",
    "increase_survey_budget(uint256,uint256)": "66e54a74",
    "owner()": "8da5cb5b",
    "renounceOwnership()": "715018a6",
    "respondent_surveys(address,uint256)": "9aec8f89",
    "respondents_iexec_dataset_address(address)": "1de4de27",
    "respondents_reputation(address)": "dff9af8e",
    "survey_count()": "9b35d705",
    "survey_respondents(uint256,uint256)": "f420a677",
    "surveys(uint256)": "86e68b90",
    "transferOwnership(address)": "f2fde38b"
  },
  "id": 23
}